:100000000C9462000C948A000C948A000C948A0070
:100010000C948A000C948A000C948A000C948A0038
:100020000C948A000C948A000C948A000C948A0028
:100030000C948A000C9424070C948A000C948A0077
:100040000C94DA060C948A000C94A8060C94820690
:100050000C948A000C948A000C948A000C948A00F8
:100060000C948A000C948A000000000024002700F1
:100070002A0000000000250028002B0000000008D6
:10008000000201000003040700000000000000005F
:1000900000000000230026002900040404040404D6
:1000A0000404020202020202030303030303010227
:1000B00004081020408001020408102001020408F6
:1000C00010204B0711241FBECFEFD8E0DEBFCDBFFD
:1000D00011E0A0E0B1E0E0E6F9E102C005900D9288
:1000E000A834B107D9F722E0A8E4B1E001C01D921D
:1000F000AB32B207E1F710E0C2E6D0E004C02197CE
:10010000FE010E94A80CC136D107C9F70E94B707AB
:100110000C94AE0C0C940000CF92DF92EF92FF9201
:10012000CF93DF93B0910702A0E08111AB2F8091B4
:10013000080290E0880F991FAC0140575F4FC090B4
:100140000D02D0900E02E0900F02F090100230E00D
:1001500020E0FA01C591D491E881B90190E080E0F6
:10016000EB23EA130AC02F5F3F4F6C157D058E0508
:100170009F0578F36FEF7FEFCB01DF91CF91FF9079
:10018000EF90DF90CF900895FC01538D448D252F83
:1001900030E0842F90E0821B930B541710F0CF9621
:1001A000089501970895FC01918D828D981761F053
:1001B000A28DAE0FBF2FB11D5D968C91928D9F5F6A
:1001C0009F73928F90E008958FEF9FEF0895FC0149
:1001D000918D828D981731F0828DE80FF11D858DFC
:1001E00090E008958FEF9FEF0895FC01918D228D8F
:1001F000892F90E0805C9F4F821B91098F73992714
:100200000895FC01A48DA80FB92FB11DA35ABF4FAB
:100210002C91848D90E001968F739927848FA68905
:10022000B7892C93A089B1898C91837080648C9359
:10023000938D848D981306C00288F389E02D808108
:100240008F7D80830895EF92FF920F931F93CF933A
:10025000DF93EC0181E0888F9B8D8C8D98131AC001
:10026000E889F989808185FF15C09FB7F894EE89E8
:10027000FF896083E889F989808183708064808345
:100280009FBF81E090E0DF91CF911F910F91FF9090
:10029000EF900895F62E0B8D10E00F5F1F4F0F7338
:1002A0001127E02E8C8D8E110CC00FB607FCFACFF3
:1002B000E889F989808185FFF5CFCE010E9401018F
:1002C000F1CFEB8DEC0FFD2FF11DE35AFF4FF082C4
:1002D0009FB7F8940B8FEA89FB8980818062CFCF2A
:1002E000CF93DF93EC01888D8823B9F0AA89BB896D
:1002F000E889F9898C9185FD03C0808186FD0DC058
:100300000FB607FCF7CF8C9185FFF2CF808185FF78
:10031000EDCFCE010E940101E9CFDF91CF91089589
:1003200083E691E00E94F50021E0892B09F420E0AA
:10033000822F089580E090E0892B29F00E9490019F
:1003400081110C9400000895AF92BF92CF92DF927A
:10035000EF92FF920F931F93CF93DF936C017B017A
:100360008B01040F151FEB015E01AE18BF08C0170B
:10037000D10759F06991D601ED91FC910190F0817E
:10038000E02DC6010995892B79F7C501DF91CF9141
:100390001F910F91FF90EF90DF90CF90BF90AF90A3
:1003A000089590E0FC01E458FF4F2491FC01E255D0
:1003B000FF4F3491FC01E656FF4FE491EE23C9F064
:1003C000222339F0233001F1A8F4213019F1223031
:1003D00029F1F0E0EE0FFF1FEE58FF4FA591B49109
:1003E0008FB7F894EC91611126C030953E233C9371
:1003F0008FBF08952730A9F02830C9F0243049F77D
:10040000809180008F7D03C0809180008F778093E2
:100410008000DFCF84B58F7784BDDBCF84B58F7D3F
:10042000FBCF8091B0008F778093B000D2CF8091C6
:10043000B0008F7DF9CF3E2BDACFCF93DF93809141
:10044000480190914901EC012196D0934901C09354
:10045000480188549F4361E08B32914008F060E08E
:1004600089E00E94D101C537D04420F010924901A3
:1004700010924801DF91CF910895CF93DF9390E0E0
:10048000FC01E255FF4F249186569F4FFC01849159
:100490008823D1F090E0880F991FFC01E859FF4FA5
:1004A000A591B491FC01EE58FF4FC591D4916230F3
:1004B00071F49FB7F8943C91822F809583238C939D
:1004C000E8812E2B28839FBFDF91CF9108958FB7AE
:1004D000F894EC912E2B2C938FBFF6CF8E50806426
:1004E00080937C0080917A00806480937A00809170
:1004F0007A0086FDFCCF8091780090917900089574
:100500003FB7F89480914B0190914C01A0914D011F
:10051000B0914E0126B5A89B05C02F3F19F001965A
:10052000A11DB11D3FBFBA2FA92F982F8827BC014D
:10053000CD01620F711D811D911D42E0660F771F75
:10054000881F991F4A95D1F708958F929F92AF9275
:10055000BF92CF92DF92EF92FF924B015C010E941B
:1005600080026B017C010E9480026C197D098E095A
:100570009F09683E734081059105A8F321E0821A26
:100580009108A108B10888EEC80E83E0D81EE11CCE
:10059000F11C81149104A104B10429F7FF90EF909C
:1005A000DF90CF90BF90AF909F908F900895CF92A3
:1005B000DF92EF92FF920F931F93CF93DF93CDB70C
:1005C000DEB7C054D1400FB6F894DEBF0FBECDBF2A
:1005D0002FB7F89480915F0190916001A091610123
:1005E000B09162012FBF4091090250910A026091BF
:1005F0000B0270910C028C019D01041B150B260B44
:10060000370BB901A801403D57406105710590F4D1
:1006100080911102C05CDE4F0FB6F894DEBF0FBEB2
:10062000CDBFDF91CF911F910F91FF90EF90DF90A1
:10063000CF9008958093090290930A02A0930B0231
:10064000B0930C0210920402109203021092020264
:10065000109201021092000262E0809105020E9455
:100660003D0261E070E080E090E00E94A50261E060
:10067000809105020E943D0260E0809105020E9487
:10068000D101809106028551823020F58BE291E103
:100690000197F1F762E0809105020E943D0280918E
:1006A000120290E08230910538F0880F991F880F70
:1006B000991F05970197F1F7F89480E00E948C004C
:1006C0006F3F7F4F8F4F9F4F61F4109211027894CC
:1006D00080E0A0CF64E170E080E090E00E94A5029D
:1006E000D9CF81E00E948C006F3F7F4F8F4F9F4F8B
:1006F00061F38E010F5F1F4F6E018FEBC81A8EEFF3
:10070000D80A780180E00E948C00F7016083718331
:100710008283938381E00E948C00F7016483758358
:1007200086839783F8E0EF0EF11CEC14FD0451F77B
:10073000789430E020E0F801C080D180E280F3803E
:100740004481558166817781FFEFCF16DF06EF0682
:10075000FF0631F04F3F8FEF58076807780719F40D
:1007600010921102B5CFF90183E0F595E7958A95CE
:10077000E1F7E050FE4F8081880FC416D506E606EB
:10078000F70610F180832F5F3F4F085F1F4F28321D
:10079000310589F640910402209100028091010206
:1007A000280F3327331F80910202280F311D8091BB
:1007B0000302820F932F911D99274817190681F67E
:1007C00081E08093110226CF8160DCCF089590E014
:1007D00080E00895FC0101900020E9F73197AF0116
:1007E000481B590BBC0183E192E00C94A4010097D3
:1007F00011F00C94EA0390E080E00895CF93DF932A
:10080000EC0160E08E810E94D10161E08E810E9446
:10081000D10160E08E810E94D1018BE891E00197C7
:10082000F1F7DF91CF910895CF92DF92EF92FF928F
:100830000F931F93CF93DF936C017C0187E0E80E49
:10084000F11CD0E0C0E0062F10E0B8010C2E02C071
:10085000759567950A94E2F76170F70181917F01C0
:100860000E94D1012196C430D10579F7C601DF91EC
:10087000CF911F910F91FF90EF90DF90CF900C944C
:10088000FE03CF92DF92EF92FF920F931F93CF93CD
:10089000DF93EC01F62E642F8C810E94D1018D81B3
:1008A0008F3F19F060E00E94D1010F2D10E08F857D
:1008B00084FF25C06E0187E0C80ED11CF12CE12C0D
:1008C000B8010E2C02C0759567950A94E2F7617025
:1008D000F60181916F010E94D101FFEFEF1AFF0A2B
:1008E00088E0E816F10461F7CE01DF91CF911F9106
:1008F0000F91FF90EF90DF90CF900C94FE03B80122
:1009000084E0759567958A95E1F7CE010E941404FD
:100910006F2DCE01DF91CF911F910F91FF90EF903E
:10092000DF90CF900C94140440E0682F83E192E0B4
:100930000C94410481E00E9494048BE39FE10197B1
:10094000F1F70895CF93DF93823029F4909122023A
:10095000986090932202809326021092270280E4EE
:100960008093280280E18093290280E580932A0207
:1009700061E0809117020E943D02809118028F3F32
:1009800019F061E00E943D0261E0809119020E942D
:100990003D02C3E1D2E09E01235132408091220208
:1009A00084FD0BC084E090E021962817390744F4B9
:1009B00061E08E810E943D02EECF88E090E0F4CFAE
:1009C0008BE39DE00197F1F760E0809117020E94B0
:1009D000D10160E0809119020E94D101809118023A
:1009E0008F3F19F060E00E94D1018091220284FDC6
:1009F00034C063E083E192E00E941404CBE4D6E4C7
:100A0000CE010197F1F763E083E192E00E941404C4
:100A10002197F1F763E083E192E00E94140483E5FB
:100A200092E00197F1F762E083E192E00E94140402
:100A30008091220280620E94940484E080932302C9
:100A40008CE00E9494040E949A0482E08093240225
:100A500086E0DF91CF910C94940480620E9494040C
:100A60008BE496E40197F1F78091220280620E9464
:100A7000940483E592E00197F1F78091220280626D
:100A80000E949404D5CF90912602691710F06FEF61
:100A9000690FE62FF0E0ED5EFD4F9489890F8068C5
:100AA0000C94940441E00E94410481E090E0089598
:100AB0002F923F924F925F926F927F928F929F926E
:100AC000AF92BF92CF92DF92EF92FF920F931F935C
:100AD000CF93DF93CDB7DEB7A5970FB6F894DEBFFF
:100AE0000FBECDBF4B015C01142FAC019B010E94D6
:100AF000810C8823F9F08EE191E00E94EA038C01D9
:100B0000C801A5960FB6F894DEBF0FBECDBFDF912A
:100B1000CF911F910F91FF90EF90DF90CF90BF90FA
:100B2000AF909F908F907F906F905F904F903F908D
:100B30002F90089575016401E894F7F82FEF3FEFC7
:100B40004FE75FE7C701B6010E94810C81110DC01C
:100B50002FEF3FEF4FE75FE7C701B6010E94B70AEB
:100B600018161CF482E291E0C8CF2FEF3FEF4FE759
:100B70005FE4C501B4010E940F0C18161CF486E254
:100B800091E0BBCF2FEF3FEF4FE75FECC501B40122
:100B90000E94B70A87FDF3CF20E030E0A901C5012C
:100BA000B4010E94B70A87FF1DC041E06DE283E1F6
:100BB00092E00E944104B7FAB094B7F8B09481E093
:100BC00090E09BA38AA3F12C60E070E080E09FE3BB
:100BD0001F1559F020E030E040E251E40E94BC0AC9
:100BE000F394F6CF1BA21AA2EECFA50194010E94A6
:100BF0004B0A4B015C010E942E0B762EC72ED82E7D
:100C0000E92E19A2262F372F482F592F8E010F5D5D
:100C10001F4F0CA3612E9AE0292E312C412C512C10
:100C2000CA01B901A20191010E94860C605DF80120
:100C300062938F01211531054105510589F7CF01D7
:100C40000E94F7030AA11BA1080F191FFF2009F436
:100C500057CF672D7C2D8D2D9E2D0E945D0B9B0106
:100C6000AC01C501B4010E944A0A4B015C0141E09C
:100C70006EE283E192E00E9441040F5F1F4F8AE021
:100C8000282E312C412C512CFA94FFEFFF1609F439
:100C900037CF20E030E040E251E4C501B4010E94CA
:100CA000140C4B015C010E942E0B9B0150E040E0B4
:100CB00019A2CCA0D62C762E3AA34DA3E52ECA01BC
:100CC000B901A20191010E94860C605DF601629358
:100CD0006F01211531054105510589F7CF010E94AA
:100CE000F703080F191F672D7AA18DA19E2D0E9471
:100CF0005D0B9B01AC01C501B4010E944A0A4B0186
:100D00005C01C2CF1F920F920FB60F9211242F9346
:100D10003F934F935F936F937F938F939F93AF9383
:100D2000BF93EF93FF9383E691E00E940101FF914F
:100D3000EF91BF91AF919F918F917F916F915F9153
:100D40004F913F912F910F900FBE0F901F901895CC
:100D50001F920F920FB60F9211242F938F939F9390
:100D6000EF93FF93E0917301F09174018081E09122
:100D70007901F0917A0182FD1BC0908180917C0104
:100D80008F5F8F7320917D01821741F0E0917C018C
:100D9000F0E0ED59FE4F958F80937C01FF91EF912C
:100DA0009F918F912F910F900FBE0F901F901895CC
:100DB0008081F4CF1F920F920FB60F9211242F93C0
:100DC0003F938F939F93AF93BF9380915F019091D7
:100DD0006001A0916101B091620130914A0123E06C
:100DE000230F2D3758F50196A11DB11D20934A01FF
:100DF00080935F0190936001A0936101B0936201C1
:100E000080914B0190914C01A0914D01B0914E0108
:100E10000196A11DB11D80934B0190934C01A093AD
:100E20004D01B0934E01BF91AF919F918F913F9132
:100E30002F910F900FBE0F901F90189526E8230F4B
:100E40000296A11DB11DD2CF1F920F920FB60F9225
:100E500011242F933F934F935F936F937F938F93BF
:100E60009F93AF93BF93EF93FF93E0915301F09162
:100E700054010995FF91EF91BF91AF919F918F918F
:100E80007F916F915F914F913F912F910F900FBE86
:100E90000F901F901895CF93E3E6F1E01382128232
:100EA00088EE93E0A0E0B0E084839583A683B783C7
:100EB00084E091E09183808385EC90E0958784873E
:100EC00084EC90E09787868780EC90E0918B808B14
:100ED00081EC90E0938B828B82EC90E0958B848BFD
:100EE00086EC90E0978B868B118E128E138E148E6B
:100EF000E3E1F2E01382128286E191E09183808344
:100F0000CBE0C4838FEF85838AE0868386E0878386
:100F100085E0808784E0818783E08287138614865A
:100F200015861686178681E00E94A204A0E0B2E032
:100F30008DE015968C9315971696CC931697EBEB40
:100F4000F0E0E4911796EC931797E7EAF0E0E4916C
:100F50001896EC93189740E85EE360E070E01D9609
:100F60004D935D936D937C935097CF9108957894B2
:100F700084B5826084BD84B5816084BD85B582609E
:100F800085BD85B5816085BD80916E00816080934F
:100F90006E001092810080918100826080938100B8
:100FA00080918100816080938100809180008160C8
:100FB000809380008091B10084608093B100809123
:100FC000B00081608093B00080917A00846080934B
:100FD0007A0080917A00826080937A0080917A0012
:100FE000816080937A0080917A00806880937A0093
:100FF0001092C10061E082E00E943D0261E088E061
:101000000E943D0261E08CE00E943D0261E087E0C9
:101010000E943D0261E089E00E943D0282E00E9460
:10102000A20460E080E00E9443058AE291E00E9411
:10103000EA0361E087E00E94D10164E670E080E0AD
:1010400090E00E94A50260E087E00E94D10162E08A
:10105000809105020E943D022FB7F89480915F01B4
:1010600090916001A0916101B09162012FBF805DFC
:101070009740A109B1098093090290930A02A093B5
:101080000B02B0930C0287E38093120260ED77E0CD
:1010900080E090E00E94A5020E949A0410928000D5
:1010A00080E18093810083E0809351018FB780932A
:1010B0005201F89484ED90E39093500180934F0196
:1010C0009093870080938600809152018FBF80911A
:1010D0008100887F8093810090918100209151014F
:1010E000922B909381008DE192E090935401809334
:1010F000530181E080936F0080918100822B809367
:1011000081000E949A04C0E0D0E010925701109232
:1011100058011092590110925A010EE110E08FE02F
:101120000E946E02BC01990F880B990B0E945F0B05
:1011300020E030E040E05FE30E94140C2091570172
:10114000309158014091590150915A010E944B0A27
:101150006B017C01C0925701D0925801E092590175
:10116000F0925A016AE070E080E090E00E94A502EF
:1011700001501109A1F620E030E040EF51E4C70131
:10118000B6010E94BC0A6093570170935801809386
:10119000590190935A0110925B0110925C011092D8
:1011A0005D0110925E010EE110E08EE00E946E0281
:1011B000BC01990F880B990B0E945F0B2DEC3CEC46
:1011C0004CEC51E40E94BC0A20915B0130915C011F
:1011D00040915D0150915E010E944B0A6B017C01C0
:1011E000C0925B01D0925C01E0925D01F0925E01E1
:1011F00062E070E080E090E00E94A50201501109D9
:10120000A1F620E030E040EF51E4C701B6010E94B2
:10121000BC0A60935B0170935C0180935D019093C5
:101220005E0160E089E00E94430588E391E00E944E
:10123000F70360915B0170915C0180915D01909179
:101240005E0141E00E94580560E080E00E94430595
:101250008BE391E00E94F70320E030E040E85FE399
:1012600060915701709158018091590190915A01F4
:101270000E944A0A41E00E9458056FED83E192E026
:101280000E9452058EE391E00E94F7030E94D7026C
:10129000882351F0809106028B3030F08D3058F069
:1012A0008551823008F4B0C0C12CD12C80ECE82EDE
:1012B0008FE7F82E1EC06091010270E090E080E0A0
:1012C0000E945F0B2DEC3CEC4CEC5DE30E94140C97
:1012D0006B017C016091000270E090E080E00E9470
:1012E0005F0B9B01AC01C701B6010E944B0A6B0169
:1012F0007C0161E080E00E94430580E491E00E946F
:10130000F70342E0C701B6010E94580585E491E069
:101310000E94F70361E089E00E94430588E391E0C1
:101320000E94F70383E491E00E94EA0380905B014E
:1013300090905C01A0905D01B0905E0120E030E0F3
:1013400040E05FE3C501B4010E944B0A2B013C0160
:10135000C0905701D0905801E0905901F0905A0187
:10136000A70196010E94B70A18160CF464C060E049
:1013700082E00E94D1018091550190915601019621
:101380008531910508F052C0909356018093550124
:1013900020E030E040EC5FE3C501B4010E944B0A5D
:1013A0009B01AC01C701B6010E940F0C61E087FFF1
:1013B00009C0A7019601C301B2010E940F0C87FD6D
:1013C00004C060E088E00E94D10120E030E040E00D
:1013D00050E4C501B4010E944B0A9B01AC01C70156
:1013E000B6010E940F0C87FD53C061E087E00E94A8
:1013F000D101209709F489CE0E949001882309F435
:1014000084CE0E94000081CE6091000270910102A2
:1014100076276727762790E080E00E945D0B2DEC11
:101420003CEC4CEC5DE30E94140C61CF1092560131
:1014300010925501ADCF20E030E040E05FE3C50100
:10144000B4010E944A0A9B01AC01C701B6010E9487
:10145000B70A181674F261E082E00E94D10161E0DF
:101460008CE00E94D10160E088E00E94D10120E080
:1014700030E040E85FE3C501B4010E944A0A9B01E5
:10148000AC01C701B6010E94B70A18160CF0ADCF27
:1014900060E0ACCF5058BB27AA270E94620A0C9488
:1014A000D50B0E94C70B38F00E94CE0B20F039F408
:1014B0009F3F19F426F40C94C40B0EF4E095E7FB5F
:1014C0000C94BE0BE92F0E94E60B58F3BA17620783
:1014D00073078407950720F079F4A6F50C94080C9F
:1014E0000EF4E0950B2EBA2FA02D0B01B90190013F
:1014F0000C01CA01A0011124FF27591B99F0593F83
:1015000050F4503E68F11A16F040A22F232F342FCA
:101510004427585FF3CF469537952795A795F04018
:101520005395C9F77EF41F16BA0B620B730B840B2D
:10153000BAF09150A1F0FF0FBB1F661F771F881FE5
:10154000C2F70EC0BA0F621F731F841F48F487953D
:1015500077956795B795F7959E3F08F0B0CF93952F
:10156000880F08F09927EE0F9795879508950E94A8
:101570009A0B08F481E008950E94D00A0C94D50BD0
:101580000E94CE0B58F00E94C70B40F029F45F3F39
:1015900029F00C94BE0B51110C94090C0C94C40B43
:1015A0000E94E60B68F39923B1F3552391F3951B41
:1015B000550BBB27AA2762177307840738F09F5F74
:1015C0005F4F220F331F441FAA1FA9F335D00E2EE1
:1015D0003AF0E0E832D091505040E695001CCAF74E
:1015E0002BD0FE2F29D0660F771F881FBB1F261711
:1015F00037074807AB07B0E809F0BB0B802DBF01E8
:10160000FF2793585F4F3AF09E3F510578F00C94B6
:10161000BE0B0C94090C5F3FE4F3983ED4F386951F
:1016200077956795B795F7959F5FC9F7880F911DD7
:101630009695879597F90895E1E0660F771F881FC3
:10164000BB1F621773078407BA0720F0621B730B76
:10165000840BBA0BEE1F88F7E09508950E94EE0BFD
:1016600088F09F5798F0B92F9927B751B0F0E1F063
:10167000660F771F881F991F1AF0BA95C9F714C013
:10168000B13091F00E94080CB1E008950C94080C60
:10169000672F782F8827B85F39F0B93FCCF386954C
:1016A00077956795B395D9F73EF4909580957095A9
:1016B00061957F4F8F4F9F4F0895E89409C097FB26
:1016C0003EF490958095709561957F4F8F4F9F4F19
:1016D0009923A9F0F92F96E9BB279395F69587955D
:1016E00077956795B795F111F8CFFAF4BB0F11F420
:1016F00060FF1BC06F5F7F4F8F4F9F4F16C08823C7
:1017000011F096E911C0772321F09EE8872F762FFC
:1017100005C0662371F096E8862F70E060E02AF03D
:101720009A95660F771F881FDAF7880F9695879529
:1017300097F90895990F0008550FAA0BE0E8FEEFFE
:1017400016161706E807F907C0F012161306E40785
:10175000F50798F0621B730B840B950B39F40A267E
:1017600061F0232B242B252B21F408950A2609F45C
:10177000A140A6958FEF811D811D089597F99F6760
:1017800080E870E060E008959FEF80EC0895002409
:101790000A941616170618060906089500240A94D6
:1017A00012161306140605060895092E0394000C5C
:1017B00011F4882352F0BB0F40F4BF2B11F460FFEB
:1017C00004C06F5F7F4F8F4F9F4F089557FD905814
:1017D000440F551F59F05F3F71F04795880F97FBF5
:1017E000991F61F09F3F79F08795089512161306AF
:1017F0001406551FF2CF4695F1DF08C016161706DE
:101800001806991FF1CF8695710561050894089512
:10181000E894BB2766277727CB0197F908950E94A4
:101820009A0B08F48FEF08950E94270C0C94D50BA7
:101830000E94C70B38F00E94CE0B20F0952311F0C8
:101840000C94BE0B0C94C40B11240C94090C0E9434
:10185000E60B70F3959FC1F3950F50E0551F629F03
:10186000F001729FBB27F00DB11D639FAA27F00DF9
:10187000B11DAA1F649F6627B00DA11D661F829F20
:101880002227B00DA11D621F739FB00DA11D621F05
:10189000839FA00D611D221F749F3327A00D611D22
:1018A000231F849F600D211D822F762F6A2F112404
:1018B0009F5750409AF0F1F088234AF0EE0FFF1F37
:1018C000BB1F661F771F881F91505040A9F79E3F8E
:1018D000510580F00C94BE0B0C94090C5F3FE4F3AF
:1018E000983ED4F3869577956795B795F795E795E4
:1018F0009F5FC1F7FE2B880F911D9695879597F9ED
:1019000008950E949A0B880B990B0895A1E21A2E54
:10191000AA1BBB1BFD010DC0AA1FBB1FEE1FFF1F93
:10192000A217B307E407F50720F0A21BB30BE40BE3
:10193000F50B661F771F881F991F1A9469F760952A
:101940007095809590959B01AC01BD01CF010895E4
:10195000EE0FFF1F0590F491E02D0994F894FFCF4E
:10196000000000002301A401C4007001F500D300B1
:10197000E700000000005205A401E703E6036E61E2
:101980006E00696E66006F76660045676720496E77
:1019900063756261746F7200533A00543A004300F9
:0819A000483A0038362500002A
:00000001FF
