:100000000C9462000C948A000C948A000C948A0070
:100010000C948A000C948A000C948A000C948A0038
:100020000C948A000C948A000C948A000C94350677
:100030000C948A000C948A000C948A000C948A0018
:100040000C94EB050C948A000C94B9050C94930560
:100050000C948A000C948A000C948A000C948A00F8
:100060000C948A000C948A000000000024002700F1
:100070002A0000000000250028002B0000000008D6
:10008000000201000003040700000000000000005F
:1000900000000000230026002900040404040404D6
:1000A0000404020202020202030303030303010227
:1000B00004081020408001020408102001020408F6
:1000C00010200C0711241FBECFEFD8E0DEBFCDBF3C
:1000D00011E0A0E0B1E0E6E9F8E102C005900D9280
:1000E000A235B107D9F722E0A2E5B1E001C01D9227
:1000F000AC33B207E1F710E0C2E6D0E004C02197CC
:10010000FE010E94430CC136D107C9F70E94640763
:100110000C94490C0C940000E3E8F1E0A089B1894B
:1001200082E08C93A485B5851C92A685B7858FEC5B
:100130008C93108EA489B58986E08C93A289B389AB
:100140008C9180618C93A289B3898C9188608C9307
:10015000A289B3898C9180688C930288F389E02D01
:1001600080818F7D80830895CF92DF92EF92FF92FE
:10017000CF93DF93B0913002A0E08111AB2F80913B
:10018000310290E0880F991FAC0140575F4FC0903B
:100190003602D0903702E0903802F090390230E019
:1001A00020E0FA01C591D491E881B90190E080E0A6
:1001B000EB23EA130AC02F5F3F4F6C157D058E05B8
:1001C0009F0578F36FEF7FEFCB01DF91CF91FF9029
:1001D000EF90DF90CF900895AF92BF92CF92DF92D1
:1001E000EF92FF920F931F93CF93DF936C017B01EC
:1001F0008B01040F151FEB015E01AE18BF08C0177D
:10020000D10759F06991D601ED91FC910190F081EF
:10021000E02DC6010995892B79F7C501DF91CF91B2
:100220001F910F91FF90EF90DF90CF90BF90AF9014
:100230000895FC01538D448D252F30E0842F90E0EC
:10024000821B930B541710F0CF96089501970895D1
:10025000FC01918D828D981761F0A28DAE0FBF2F9A
:10026000B11D5D968C91928D9F5F9F73928F90E0F0
:1002700008958FEF9FEF0895FC01918D828D98175F
:1002800031F0828DE80FF11D858D90E008958FEF9C
:100290009FEF0895FC01918D228D892F90E0805C65
:1002A0009F4F821B91098F739927089583E891E0EE
:1002B0000E944A0121E0892B09F420E0822F089551
:1002C00080E090E0892B29F00E94560181110C9466
:1002D00000000895FC01A48DA80FB92FB11DA35AE9
:1002E000BF4F2C91848D90E001968F739927848F56
:1002F000A689B7892C93A089B1898C918370806479
:100300008C93938D848D981306C00288F389E02D19
:1003100080818F7D80830895EF92FF920F931F93CA
:10032000CF93DF93EC0181E0888F9B8D8C8D9813A8
:100330001AC0E889F989808185FF15C09FB7F894B4
:10034000EE89FF896083E889F98980818370806400
:1003500080839FBF81E090E0DF91CF911F910F914B
:10036000FF90EF900895F62E0B8D10E00F5F1F4F5A
:100370000F731127E02E8C8D8E110CC00FB607FC69
:10038000FACFE889F989808185FFF5CFCE010E94F7
:100390006A01F1CFEB8DEC0FFD2FF11DE35AFF4FFA
:1003A000F0829FB7F8940B8FEA89FB898081806285
:1003B000CFCFCF93DF93EC01888D8823B9F0AA8942
:1003C000BB89E889F9898C9185FD03C0808186FD10
:1003D0000DC00FB607FCF7CF8C9185FFF2CF80815F
:1003E00085FFEDCFCE010E946A01E9CFDF91CF9169
:1003F000089590E0FC01E458FF4F2491FC01E25580
:10040000FF4F3491FC01E656FF4FE491EE23C9F013
:10041000222339F0233001F1A8F4213019F12230E0
:1004200029F1F0E0EE0FFF1FEE58FF4FA591B491B8
:100430008FB7F894EC91611126C030953E233C9320
:100440008FBF08952730A9F02830C9F0243049F72C
:10045000809180008F7D03C0809180008F77809392
:100460008000DFCF84B58F7784BDDBCF84B58F7DEF
:10047000FBCF8091B0008F778093B000D2CF809176
:10048000B0008F7DF9CF3E2BDACFCF93DF9390E092
:10049000FC01E255FF4F249186569F4FFC01849149
:1004A0008823D1F090E0880F991FFC01E859FF4F95
:1004B000A591B491FC01EE58FF4FC591D4916230E3
:1004C00071F49FB7F8943C91822F809583238C938D
:1004D000E8812E2B28839FBFDF91CF9108958FB79E
:1004E000F894EC912E2B2C938FBFF6CF3FB7F89456
:1004F0008091550190915601A0915701B0915801FA
:1005000026B5A89B05C02F3F19F00196A11DB11D6E
:100510003FBFBA2FA92F982F8827BC01CD01620FAA
:10052000711D811D911D42E0660F771F881F991F65
:100530004A95D1F708958F929F92AF92BF92CF9232
:10054000DF92EF92FF924B015C010E9476026B01F9
:100550007C010E9476026C197D098E099F09683E14
:10056000734081059105A8F321E0821A9108A10842
:10057000B10888EEC80E83E0D81EE11CF11C81147E
:100580009104A104B10429F7FF90EF90DF90CF9080
:10059000BF90AF909F908F900895CF92DF92EF928F
:1005A000FF920F931F93CF93DF93CDB7DEB7C05465
:1005B000D1400FB6F894DEBF0FBECDBF2FB7F89471
:1005C00080917F0190918001A0918101B091820181
:1005D0002FBF4091320250913302609134027091EA
:1005E00035028C019D01041B150B260B370BB9013D
:1005F000A801403D57406105710590F480913A0291
:10060000C05CDE4F0FB6F894DEBF0FBECDBFDF91EA
:10061000CF911F910F91FF90EF90DF90CF900895B1
:100620008093320290933302A0933402B093350248
:1006300010922D0210922C0210922B0210922A027C
:100640001092290262E080912E020E94450261E030
:1006500070E080E090E00E949B0261E080912E02B9
:100660000E94450260E080912E020E94F901809173
:100670002F028551823020F58BE291E10197F1F74D
:1006800062E080912E020E94450280913B0290E040
:100690008230910538F0880F991F880F991F0597B0
:1006A0000197F1F7F89480E00E94B4006F3F7F4F0C
:1006B0008F4F9F4F61F410923A02789480E0A0CF60
:1006C00064E170E080E090E00E949B02D9CF81E07D
:1006D0000E94B4006F3F7F4F8F4F9F4F61F38E0199
:1006E0000F5F1F4F6E018FEBC81A8EEFD80A78018B
:1006F00080E00E94B400F70160837183828393835A
:1007000081E00E94B400F701648375838683978338
:10071000F8E0EF0EF11CEC14FD0451F7789430E092
:1007200020E0F801C080D180E280F38044815581CF
:1007300066817781FFEFCF16DF06EF06FF0631F007
:100740004F3F8FEF58076807780719F410923A0265
:10075000B5CFF90183E0F595E7958A95E1F7E75D77
:10076000FD4F8081880FC416D506E606F70610F106
:1007700080832F5F3F4F085F1F4F2832310589F676
:1007800040912D022091290280912A02280F3327BF
:10079000331F80912B02280F311D80912C02820F74
:1007A000932F911D99274817190681F681E08093B0
:1007B0003A0226CF8160DCCFCF92DF92EF92FF9298
:1007C000CF93DF93EC01603282E07807CCF5653B94
:1007D000710514F064EB70E0898128E830E0281B93
:1007E000310987FD3395220F331F220F331F690113
:1007F000330FEE08FF088A8128E532E0281B310913
:1008000087FD3395220F331F220F331F032E000C59
:10081000440B550B2C193D094E095F09DB0177FF8D
:1008200002C0B0E0A0E00E94C20924EB30E040E04A
:1008300050E00E949809C20ED31EE41EF51EB601B8
:10084000E881EC3070F5298188E890E0821B9109FD
:1008500027FD9395880F991F880F991F68177907AF
:100860007CF02A8188E592E0821B910927FD93950F
:10087000880F991F880F991F681779070CF4CB010F
:100880000297880F991F4FB7F8942E2F30E0F90187
:10089000EE0FFF1FE20FF31FE75AFE4F9283818393
:1008A0004FBFDF91CF91FF90EF90DF90CF900895F1
:1008B000FC0101900020E9F73197AF01481B590B6B
:1008C000BC0183E891E00C94EC008F929F92AF9270
:1008D000BF920F931F93CF93DF93CDB7DEB7A1974E
:1008E0000FB6F894DEBF0FBECDBF19A2423008F498
:1008F0004AE08E010F5D1F4F842E912CB12CA12C4C
:10090000A50194010E94CA09E62FB901CA01EA3083
:10091000F4F4E05DD801EE938D01232B242B252BDD
:1009200079F790E080E0109719F0CD010E9458040B
:10093000A1960FB6F894DEBF0FBECDBFDF91CF9169
:100940001F910F91BF90AF909F908F900895E95C99
:10095000E1CFCF93DF930E945804EC0182E191E054
:100960000E9458048C0F9D1FDF91CF9108954F92E4
:100970005F926F927F928F929F92AF92BF92CF922F
:10098000DF92EF92FF920F931F93CF936B017C0145
:10099000742EAC019B010E94320C882399F085E1F2
:1009A00091E0CF911F910F91FF90EF90DF90CF904A
:1009B000BF90AF909F908F907F906F905F904F907F
:1009C0000C94580446015701E894B7F82FEF3FEF15
:1009D0004FE75FE7C501B4010E94320C81110DC0E1
:1009E0002FEF3FEF4FE75FE7C501B4010E94680AB0
:1009F00018161CF489E191E0D4CF2FEF3FEF4FE7B9
:100A00005FE4C701B6010E94C00B18161CF48DE10B
:100A100091E0C7CF2FEF3FEF4FE75FECC701B60183
:100A20000E94680A87FDF3CF20E030E0A901C701EA
:100A3000B6010E94680A10E000E087FF0AC06DE27C
:100A400083E891E00E948C018C01F7FAF094F7F8AA
:100A5000F094C0E060E070E080E09FE37C1641F03D
:100A600020E030E040E251E40E946D0ACF5FF6CF13
:100A7000A70196010E94FC092B013C010E94DF0A9C
:100A80004B015C014AE00E9465047C01E00EF11E0E
:100A9000CC23C1F1C501B4010E940E0B9B01AC0136
:100AA000C301B2010E94FB094B015C016EE283E8C5
:100AB00091E00E948C01E80EF91EC15018F120E06F
:100AC00030E040E251E4C501B4010E94C50B2B01A6
:100AD0003C010E94DF0A4B01B12CA12C4AE0C50168
:100AE000B4010E946504E80EF91EC501B4010E941C
:100AF0000E0B9B01AC01C301B2010E94FB094B012B
:100B00005C01DBCFC701CF911F910F91FF90EF9058
:100B1000DF90CF90BF90AF909F908F907F906F901D
:100B20005F904F9008951F920F920FB60F9211246D
:100B30002F933F934F935F936F937F938F939F93E5
:100B4000AF93BF93EF93FF9383E891E00E946A0114
:100B5000FF91EF91BF91AF919F918F917F916F9195
:100B60005F914F913F912F910F900FBE0F901F906B
:100B700018951F920F920FB60F9211242F938F93F7
:100B80009F93EF93FF93E0919301F0919401808103
:100B9000E0919901F0919A0182FD1BC090818091B2
:100BA0009C018F5F8F7320919D01821741F0E0912E
:100BB0009C01F0E0ED57FE4F958F80939C01FF91D3
:100BC000EF919F918F912F910F900FBE0F901F90DB
:100BD00018958081F4CF1F920F920FB60F921124B7
:100BE0002F933F938F939F93AF93BF9380917F01F8
:100BF00090918001A0918101B091820130915401C6
:100C000023E0230F2D3758F50196A11DB11D209328
:100C1000540180937F0190938001A0938101B09350
:100C200082018091550190915601A0915701B09198
:100C300058010196A11DB11D809355019093560155
:100C4000A0935701B0935801BF91AF919F918F919D
:100C50003F912F910F900FBE0F901F90189526E88F
:100C6000230F0296A11DB11DD2CF1F920F920FB676
:100C70000F9211242F933F934F935F936F937F9322
:100C80008F939F93AF93BF93CF93DF93EF93FF9394
:100C900080915201C0915301D0E087FF24C010928F
:100CA000850010928400809152018F5F80935201E1
:100CB00080915201082E000C990B8C179D0724F48B
:100CC000809152018C30C4F1809184009091850014
:100CD000049680349C4908F47AC0809184009091F5
:100CE0008500049676C080915201082E000C990B65
:100CF0008C179D07C4F6E09152018E2FEE0F990BD1
:100D0000FC01EE0FFF1FE80FF91FE75AFE4F80812D
:100D100086FFC9CFE09152018E2FEE0F990BFC0197
:100D2000EE0FFF1FE80FF91FE75AFE4F808160E0CA
:100D30008F730E94F901B7CF209184003091850014
:100D4000E09152018E2FEE0F990BFC01EE0FFF1F69
:100D5000E80FF91FE75AFE4F81819281820F931F9E
:100D60009093890080938800E09152018E2FEE0FBE
:100D7000990BFC01EE0FFF1FE80FF91FE75AFE4F1A
:100D8000808186FF11C0E09152018E2FEE0F990BEA
:100D9000FC01EE0FFF1FE80FF91FE75AFE4F80819D
:100DA00061E08F730E94F901FF91EF91DF91CF9184
:100DB000BF91AF919F918F917F916F915F914F9173
:100DC0003F912F910F900FBE0F901F90189580E4C8
:100DD0009CE990938900809388008FEF8093520163
:100DE000E3CFFC01909153019C3098F481E0890F8E
:100DF000809353019083892F90E0FC01EE0FFF1F39
:100E0000E80FF91FE75AFE4F88EB9BE0928381833E
:100E100008958FEF80830895E3E8F1E01382128252
:100E200088EE93E0A0E0B0E084839583A683B78347
:100E300084E091E09183808385EC90E095878487BE
:100E400084EC90E09787868780EC90E0918B808B94
:100E500081EC90E0938B828B82EC90E0958B848B7D
:100E600086EC90E0978B868B118E128E138E148EEB
:100E7000A9E2B2E082E015968C9315978BE0169666
:100E80008C931697E0EBF0E0E4911796EC931797AC
:100E9000ECE9F0E0E4911896EC93189740E85EE3F3
:100EA00060E070E01D964D935D936D937C93509739
:100EB00086E292E00E94F10683E292E00E94F1064F
:100EC00080E292E00C94F106789484B5826084BD4F
:100ED00084B5816084BD85B5826085BD85B581603E
:100EE00085BD80916E00816080936E0010928100BC
:100EF0008091810082608093810080918100816077
:100F00008093810080918000816080938000809137
:100F1000B10084608093B1008091B00081608093C3
:100F2000B00080917A00846080937A0080917A008A
:100F3000826080937A0080917A00816080937A0049
:100F400080917A00806880937A001092C10080912D
:100F500026028C3008F051C061E08DE00E9445020D
:100F600080912602282F30E0F901EE0FFF1FE20FDB
:100F7000F31FE75AFE4F9081907C9D609083109202
:100F80002702109228022CE0622F0E94370C829FC9
:100F9000B001112430E020E0AB01420F531FFA01F1
:100FA000EE0FFF1FE40FF51FE75AFE4F908196FDED
:100FB00016C02F5F3F4F2C30310571F781110FC0E4
:100FC0001092800082E08093810010928500109240
:100FD0008400B19A80916F00826080936F00E091ED
:100FE00026028E2F90E0FC01EE0FFF1FE80FF91F85
:100FF000E75AFE4F8081806480830E948C0062E00B
:1010000080912E020E9445022FB7F89480917F01B3
:1010100090918001A0918101B09182012FBF805DEC
:101020009740A109B1098093320290933302A093B3
:101030003402B093350287E380933B0230E0632EA5
:1010400030E0732E04EB10E047E3542E60ED77E0C0
:1010500080E090E00E949B020E94CD02882349F02C
:1010600080912F028B3028F08D3050F085518230E6
:10107000C0F1812C912C20ECA22E2FE7B22E1EC0A5
:1010800060912A0270E090E080E00E94100B2DEC4D
:101090003CEC4CEC5DE30E94C50B6B017C01609164
:1010A000290270E090E080E00E94100B9B01AC01EF
:1010B000C701B6010E94FC094B015C010E94CD02F0
:1010C000882341F080912F028C3009F49CC0D8F421
:1010D0008B3091F1C12CD12C80ECE82E8FE7F82ECB
:1010E00055C06091290270912A02762767277627DA
:1010F00090E080E00E940E0B2DEC3CEC4CEC5DE3AC
:101100000E94C50BD9CF8551823020F7C0912B02A8
:101110006C2F70E0762F662766277F7780912C02F0
:10112000682B90E080E00E940E0B2DEC3CEC4CEC28
:101130005DE30E94C50B83C060912B0270E090E0DC
:1011400080E00E940E0B6B017C01C0912C02C7FF56
:101150000AC0AC019B0160E070E080E89FEB0E9458
:10116000FB096B017C01CF706C2F70E090E080E098
:101170000E94100B2DEC3CEC4CEC5DE30E94C50B87
:10118000A70196010E94FC096B017C0120E030E080
:1011900040EF51E4C501B4010E94C00B18160CF0D9
:1011A0009DC020E030E040EF51E4C501B4010E9451
:1011B000680A18160CF092C010927E0110927D0100
:1011C000C0917D01D0917E01C53BD1050CF040C09E
:1011D000BE0186E292E00E94DC03BE0183E292E05F
:1011E0000E94DC03BE0180E292E00E94DC036AE020
:1011F00070E080E090E00E949B022196D0937E01F7
:10120000C0937D01DDCFC0912B026C2F70E090E088
:1012100080E00E940E0B6B017C0160912C026F70CC
:1012200070E090E080E00E94100B2DEC3CEC4CEC68
:101230005DE30E94C50BA70196010E94FC096B01AA
:101240007C01C7FFA3CFF7FAF094F7F8F0949ECF94
:1012500010937E0100937D01C0917D01D0917E01AC
:10126000D7FD1BC0BE0186E292E00E94DC03BE01F6
:1012700083E292E00E94DC03BE0180E292E00E94E1
:10128000DC036AE070E080E090E00E949B0221971E
:10129000D0937E01C0937D01DFCF0E948C0062E07D
:1012A00080912E020E9445022FB7F89480917F0111
:1012B00090918001A0918101B09182012FBF805D4A
:1012C0009740A109B1098093320290933302A09311
:1012D0003402B093350250923B0263CF81E291E039
:1012E0000E94A90442E0C501B4010E94B70482E152
:1012F00091E00E9458048DE291E00E94A90442E02E
:10130000C701B6010E94B70482E191E00E9458042F
:101310008CE391E00E94A9046114710409F496CE53
:101320000E945601882309F491CE0E9400008ECEBF
:10133000052E97FB1EF400940E94AF0957FD07D0BD
:101340000E94CA0907FC03D04EF40C94AF095095D3
:101350004095309521953F4F4F4F5F4F08959095A1
:101360008095709561957F4F8F4F9F4F08950E9494
:10137000EC09A59F900DB49F900DA49F800D911D29
:1013800011240895B7FF0C94B7090E94B709821B76
:10139000930B0895A1E21A2EAA1BBB1BFD010DC0E1
:1013A000AA1FBB1FEE1FFF1FA217B307E407F50715
:1013B00020F0A21BB30BE40BF50B661F771F881FF1
:1013C000991F1A9469F760957095809590959B0187
:1013D000AC01BD01CF010895A29FB001B39FC00130
:1013E000A39F700D811D1124911DB29F700D811D51
:1013F0001124911D08955058BB27AA270E94130A53
:101400000C94860B0E94780B38F00E947F0B20F022
:1014100039F49F3F19F426F40C94750B0EF4E09503
:10142000E7FB0C946F0BE92F0E94970B58F3BA1748
:10143000620773078407950720F079F4A6F50C94EA
:10144000B90B0EF4E0950B2EBA2FA02D0B01B901AC
:1014500090010C01CA01A0011124FF27591B99F02A
:10146000593F50F4503E68F11A16F040A22F232F36
:10147000342F4427585FF3CF469537952795A79586
:10148000F0405395C9F77EF41F16BA0B620B730B2D
:10149000840BBAF09150A1F0FF0FBB1F661F771F9E
:1014A000881FC2F70EC0BA0F621F731F841F48F453
:1014B000879577956795B795F7959E3F08F0B0CFDC
:1014C0009395880F08F09927EE0F979587950895C3
:1014D0000E944B0B08F481E008950E94810A0C944D
:1014E000860B0E947F0B58F00E94780B40F029F485
:1014F0005F3F29F00C946F0B51110C94BA0B0C94B4
:10150000750B0E94970B68F39923B1F3552391F360
:10151000951B550BBB27AA2762177307840738F062
:101520009F5F5F4F220F331F441FAA1FA9F335D0BF
:101530000E2E3AF0E0E832D091505040E695001C73
:10154000CAF72BD0FE2F29D0660F771F881FBB1F2D
:10155000261737074807AB07B0E809F0BB0B802D0B
:10156000BF01FF2793585F4F3AF09E3F510578F037
:101570000C946F0B0C94BA0B5F3FE4F3983ED4F3DA
:10158000869577956795B795F7959F5FC9F7880F0B
:10159000911D9695879597F90895E1E0660F771F5D
:1015A000881FBB1F621773078407BA0720F0621BEE
:1015B000730B840BBA0BEE1F88F7E09508950E9419
:1015C0009F0B88F09F5798F0B92F9927B751B0F02B
:1015D000E1F0660F771F881F991F1AF0BA95C9F7B7
:1015E00014C0B13091F00E94B90BB1E008950C9491
:1015F000B90B672F782F8827B85F39F0B93FCCF344
:10160000869577956795B395D9F73EF49095809533
:10161000709561957F4F8F4F9F4F0895E89409C053
:1016200097FB3EF490958095709561957F4F8F4F15
:101630009F4F9923A9F0F92F96E9BB279395F6952B
:10164000879577956795B795F111F8CFFAF4BB0FA9
:1016500011F460FF1BC06F5F7F4F8F4F9F4F16C00D
:10166000882311F096E911C0772321F09EE8872F97
:10167000762F05C0662371F096E8862F70E060E053
:101680002AF09A95660F771F881FDAF7880F9695CC
:10169000879597F90895990F0008550FAA0BE0E870
:1016A000FEEF16161706E807F907C0F01216130624
:1016B000E407F50798F0621B730B840B950B39F464
:1016C0000A2661F0232B242B252B21F408950A26CA
:1016D00009F4A140A6958FEF811D811D089597F90A
:1016E0009F6780E870E060E008959FEF80EC0895C8
:1016F00000240A94161617061806090608950024F1
:101700000A9412161306140605060895092E03946A
:10171000000C11F4882352F0BB0F40F4BF2B11F4DE
:1017200060FF04C06F5F7F4F8F4F9F4F089557FD3D
:101730009058440F551F59F05F3F71F04795880F3F
:1017400097FB991F61F09F3F79F0879508951216D6
:1017500013061406551FF2CF4695F1DF08C0161682
:1017600017061806991FF1CF869571056105089433
:101770000895E894BB2766277727CB0197F908954A
:101780000E944B0B08F48FEF08950E94D80B0C9425
:10179000860B0E94780B38F00E947F0B20F0952377
:1017A00011F00C946F0B0C94750B11240C94BA0B64
:1017B0000E94970B70F3959FC1F3950F50E0551F52
:1017C000629FF001729FBB27F00DB11D639FAA2796
:1017D000F00DB11DAA1F649F6627B00DA11D661FE5
:1017E000829F2227B00DA11D621F739FB00DA11D06
:1017F000621F839FA00D611D221F749F3327A00DC0
:10180000611D231F849F600D211D822F762F6A2F5B
:1018100011249F5750409AF0F1F088234AF0EE0FC0
:10182000FF1FBB1F661F771F881F91505040A9F7ED
:101830009E3F510580F00C946F0B0C94BA0B5F3FE8
:10184000E4F3983ED4F3869577956795B795F79529
:10185000E7959F5FC1F7FE2B880F911D96958795A1
:1018600097F908950E944B0B880B990B0895991BCB
:1018700079E004C0991F961708F0961B881F7A9587
:10188000C9F780950895EE0FFF1F0590F491E02DA4
:061890000994F894FFCF5B
:10189600000000008C01EC001901D9014A01280161
:1018A6003C010D0A006E616E00696E66006F766619
:1018B6000048756D6964697479203A200054656D35
:1018C6007065726174757265203A200044656772AE
:1018D60065652063656E74696772616465203A2088
:0218E600000000
:00000001FF
